S01C0000454550524F4D5F5350495F496E746572666163652E7372656305
S11300000C942A000C9447000C9447000C9447006D
S11300100C9447000C9447000C9447000C94470040
S11300200C9447000C9447000C9447000C94470030
S11300300C94A9000C9447000C9447000C944700BE
S11300400C9447000C9447000C9447000C94470010
S11300500C94470011241FBECFE5D8E0DEBFCDBF0E
S113006011E0A0E6B0E0EEE0F5E002C005900D92EC
S1130070A835B107D9F721E0A8E5B1E001C01D9288
S1130080A136B207E1F70E9480020C9485020C9419
S11300900000FC014130B1F018F0423029F108951C
S11300A0218181E090E0AC0102C0440F551F6A95A4
S11300B0E2F7BA016095862F8223818382816823C7
S11300C062830895218181E090E0AC0102C0440F75
S11300D0551F6A95E2F7BA01842F809582238183A4
S11300E08281682B62830895218181E090E0AC01D4
S11300F002C0440F551F6A95E2F7BA01822F842B80
S1130100818382816095682362830895442389F002
S11301104130F1F4FC01428121E030E0F90102C0F8
S1130120EE0FFF1F6A95E2F7BF01642BFC016283A7
S11301300895FC01428121E030E0F90102C0EE0F94
S1130140FF1F6A95E2F7BF0160956423FC01628397
S113015008951F920F920FB60F9211242F933F937D
S11301604F935F936F937F938F939F93AF93BF93BB
S1130170EF93FF93E0915D01F0915E01309709F0F8
S11301800995FF91EF91BF91AF919F918F917F91CD
S11301906F915F914F913F912F910F900FBE0F90F0
S11301A01F90189510920D0010920E008091580126
S11301B0813009F0A3C0809159018823D1F08130A6
S11301C0F1F4EDE0F0E080818061808342E065E05D
S11301D086E390E00E94490042E067E086E390E015
S11301E00E94490042E064E086E390E00E944900F6
S11301F006C042E066E086E390E00E9449008091F8
S11302005B01813029F4EDE0F0E08081806280833D
S113021080915C01813029F4EDE0F0E08081806818
S1130220808380915A01823051F08330A1F0813073
S113023001F5EDE0F0E08081846080831AC0EDE098
S1130240F0E080818860808341E067E086E390E0AD
S11302500E9486000EC0EDE0F0E08081846080831F
S113026080818860808341E067E086E390E00E94BB
S1130270860080915F018330E9F028F4882349F0F7
S1130280823069F036C0853031F1D0F0863049F1E2
S113029030C0EEE0F0E08081816080832AC0EEE02F
S11302A0F0E0808181608083EDE0F0E08081816016
S11302B080831FC0EDE0F0E080818160808319C0FD
S11302C0EEE0F0E0808181608083EDE0F0E0808109
S11302D0826080830EC0EDE0F0E0808182608083E4
S11302E008C0EDE0F0E080818160808380818260DD
S11302F08083EDE0F0E080818064808308958093C2
S11303000F0080910E0086FF03C081E0809360019E
S1130310EEE0F0E080818823ECF780910F000895EF
S113032087E689B910BC549A539A80B5806880BD19
S113033080B5826080BD80B5846080BD08955D9B7A
S1130340FECF8CB908955F9BFECF8CB10895CF93F7
S1130350DF93EC018881882331F021960E949F016C
S113036089918111FBCFDF91CF91089581E0809332
S113037058018093590183E080935A0110925B01E4
S113038082E080935F0110925C0142E060E086E3CA
S113039090E00E9449000E94D2000895CF93DF9319
S11303A0C82FD62F40E060E086E390E00E948600EC
S11303B086E00E947F0141E060E086E390E00E94D5
S11303C086002FEF80E792E0215080409040E1F7D3
S11303D000C0000040E060E086E390E00E948600F8
S11303E082E00E947F018D2F0E947F018C2F0E944A
S11303F07F0141E060E086E390E00E948600DF91A7
S1130400CF910895CF93C82F40E060E086E390E059
S11304100E94860083E00E947F018C2F0E947F014E
S113042080E00E947F01C82F41E060E086E390E015
S11304300E9486008C2FCF9108950E9490010E9403
S1130440B6010895CF93DF9380E690E00E94A70160
S11304508DE00E949F010E94A301C82F8DE00E949D
S11304609F01C73541F018F4C23521F13FC0C237AE
S113047009F1C737D9F587EA90E00E94A7010E94E5
S1130480A301D82F8DE20E949F010E94A301C82FCF
S11304908DE00E949F01D0536D2F70E080ED8C0F92
S11304A00E94CE0183EE90E00E94A7018DE00E949D
S11304B09F0123C08CEF90E00E94A7010E94A3013A
S11304C0C82F8DE00E949F0180ED8C0F90E00E9468
S11304D00202C82F8FE191E00E94A70180E38C0FF4
S11304E00E949F018DE00E949F0107C087E391E075
S11304F00E94A7018DE00E949F01DF91CF91089592
S11105000E941D020E942202FDCFF894FFCF3C
S113050E506C6561736520456E7465722057207456
S113051E6F205772697465204461746120746F2072
S113052E454550524F4D206F72205220746F205209
S113053E65616420446174612046726F6D20454587
S113054E50524F4D3A2000506C65617365205072C5
S113055E6F766964652041646472657373205B30E1
S113056E202D203132375D20466F6C6C6F776564B9
S113057E20427920446174615B302D3235355D2023
S113058E3A20005772697465204F70657261746900
S113059E6F6E20446F6E65203A3A2000506C656190
S11305AE73652050726F7669646520416464726568
S11305BE7373205B30202D203132375D3A20004199
S11305CE646472657373206861732044617461207E
S11305DE6F66203A20200057726F6E6720496E7046
S11305EE757420506C65617365205472792041676F
S10B05FE61696E203A3A000025
S9030000FC
